:020000040000FA
:10000000609D0020D5010000D90100009F3B040045
:10001000DD010000DF010000E10100000000000040
:10002000000000000000000000000000E3010000EC
:10003000F501000000000000273B040055640400A7
:10004000FB010000FB010000FB010000FB010000C0
:10005000FB01000000000000FB010000FB010000AC
:1000600079AD000000000000FB010000FB01000072
:10007000FB01000000000000000000000000000084
:10008000FB01000000000000000000000000000074
:10009000FB010000FB010000FB010000FB01000070
:1000A000FB010000FB010000FB010000FB01000060
:1000B000FB010000FB010000FB010000FB01000050
:1000C000FB010000FB010000FB010000FB01000040
:1000D000FB01000000000000FB010000FB0100002C
:1000E000FB010000FB010000FB010000FB01000020
:1000F00000000000FB01000000000000FB01000008
:10010000FB01000000000000FB010000FB010000FB
:10011000FB010000FB010000FB010000FB010000EF
:10012000FB010000FB010000FB010000FB010000DF
:10013000FB010000FB010000FB010000FB010000CF
:10014000FB010000FB010000FB01000000000000BB
:10015000000000000000000000000000000000009F
:10016000000000000000000000000000000000008F
:10017000000000000000000000000000000000007F
:1001800065DE010087950000B3DE010049DF010054
:10019000DFDF010015E00100B9E001007B960000FF
:1001A00005970000159600001B950000539900006C
:1001B0006B970000FB010000FB010000FB01000049
:1001C000DFF80CD046F084FC00480047A73F04004D
:1001D000609D002009480047FEE7FEE7FEE7FEE7D6
:1001E000FEE71EF0040F0CBFEFF30880EFF3098069
:1001F00000F09AB9FEE7FEE7FEE7FEE7C101000066
:1002000000BFFEE7ADF57C7D14461D4601952146F5
:1002100002A846F06CF900BFFEE700BFFEE770B52C
:10022000044672B6134800680460B4F1C33F04D0BA
:10023000B4F1A53F01D00025A84770BD09F05EFCD0
:100240004FF480514FF4C62006F017FD0A480068AD
:1002500008F038F862B600BF08F0A1F8FCE70446E1
:1002600000BF00BF00BFEA2304A200212046FFF721
:10027000C9FF000004020020080200202E2E5C535B
:1002800072635C617263685F6D61696E2E6300000A
:100290000246012110E052F8210048B152F8210035
:1002A000B0F5C82F05D952F82100B0F5002F00D2C3
:1002B00001E000207047491C7029ECD30120F9E7C8
:1002C00070B5044600254FF400722946704846F088
:1002D000DDF8F83454F8DC0C6D49C86154F8D80CDA
:1002E000086254F8D40C486254F8D00C886254F870
:1002F000C40C486354F8A40C486554F8940C486640
:1003000054F8840C486754F8800C886754F87C0CC7
:10031000C86754F8740CC1F8840054F8700CC1F824
:10032000880054F86C0CC1F88C0054F8680CC1F8C3
:10033000900054F8640CC1F8940054F8600CC1F8B3
:10034000980054F85C0CC1F89C0054F8580CC1F8A3
:10035000A00054F8540CC1F8A40054F8500CC1F893
:10036000A80054F84C0CC1F8AC0054F8300CC1F89B
:10037000C80054F82C0CC1F8CC0054F8280CC1F873
:10038000D00054F8240CC1F8D40054F8080CC1F87B
:10039000F0002068C1F8F800E068C1F804012069A5
:1003A000C1F808016069C1F80C01A069C1F8100129
:1003B000E069C1F81401206AC1F81801606AC1F847
:1003C0001C01A06AC1F82001E06AC1F82401206B79
:1003D000C1F82801606BC1F82C01A06BC1F8300195
:1003E000E06BC1F83401206CC1F83801606CC1F8D1
:1003F0003C01A06CC1F84001E06CC1F84401606DA3
:10040000C1F84C01A06DC1F85001E06DC1F8540174
:10041000206EC1F85801606EC1F85C01A06EC1F891
:100420006001E06EC1F86401206FC1F86801606F7F
:10043000C1F86C01A06FC1F87001E06FC1F87401E0
:10044000D4F88000C1F87801D4F88400F83CC1F8F1
:100450007C0172B60E480F49086062B670BD30B5B7
:10046000F1B004464FF4E072214601A846F00EF8C0
:1004700001A8FFF70DFF18B94FF0FF3071B030BD84
:1004800001A8FFF71DFF029DA8470020F6E7000026
:100490000000002008ED00E010B504464FF4C8202D
:1004A000FFF7DDFF144845F0C9FA10BD00B585B06F
:1004B0000123002211A1144843F082FE0490134846
:1004C00002F04EFF124802F04BFF14200821CA012F
:1004D000104BCDE90032CDE9021000230E4A0FA1E6
:1004E000054845F018FA0490034845F070FA049066
:1004F000002005B000BD0000F80900206D61696EA4
:100500005F72775F73656D00700E0020900E0020A3
:10051000A40E0020700A0020990400007573657213
:100520005F6D61696E00000070B50446A06910F847
:10053000025C102D05D22146284600F099F8206073
:1005400021E0502D05D22146284600F02BFE2060E8
:1005500019E0702D05D22146284601F034F92060BB
:1005600011E0802D05D22146284601F079FA20605D
:1005700009E0FF2D05D22146284601F0F4FD206058
:1005800001E01120206070BD10B5024653689168EB
:10059000454820F00F00186009B9302010BD434CC9
:1005A00008682060424C48682060424C886820609F
:1005B000414CC86820600020F0E770B50446206810
:1005C00045F0B2FB05460DB9002070BDFF20FCE7E9
:1005D0002DE9FC4105462E686C6816B10CB1206807
:1005E00010B93020BDE8FC81A06843F069FC0746E3
:1005F000207B40F00400CDE9007030A13046D4E902
:10060000002345F072FC0020ECE770B505462E682B
:100610000EB9302070BD304645F0ADFC04460CB13B
:10062000FF20F7E70020F5E770B505462E680EB904
:10063000302070BD304645F048FD04460CB1FF2027
:10064000F7E70020F5E7F8B504462668606843F050
:1006500037FC00900EB93020F8BD6A4600213046C4
:1006600045F05DFD05460DB1FF20F5E70020F3E7FD
:1006700070B505460E46002411E0144810F8340009
:10068000A8420BD1114800EBC400406830B10F48BC
:1006900000EBC40041683046884770BD641C062CDE
:1006A000EBD31120F9E70000709D0020D006002058
:1006B000AC070020000800208C0800207574696DCC
:1006C00065725F2374696D65720000000C02002082
:1006D00070B5054601230322072140F6025005F0BC
:1006E000D5FC044601202070204605F0F8FC0020CF
:1006F00070BD70B50646356840230322072140F6D9
:10070000045005F0C3FC0446032020702878607074
:10071000D5F80100C4F80200B5F80500E080D5F86E
:100720000700A060B5F80B00A081E889E081286986
:100730002061A88AA082102205F1160104F116009A
:1007400045F0A4FE15F8260F04F8260F68786070AF
:1007500068886080A888A080E888E0802889208157
:1007600068896081A889A081E889E081287C20745B
:10077000688A6082287D2075687D6075E88AE082DD
:10078000288B263D2083263C204605F0A8FC00202F
:1007900070BD70B505462E682823032207214FF44B
:1007A0005A6005F073FC0446A02020703078607019
:1007B0002422311D201D45F069FE204605F08FFCE6
:1007C000002070BD70B5064635682323032207213B
:1007D00040F6A65005F05AFC0446A920207028785F
:1007E0006070688860806A88201D696845F04EFEE8
:1007F000204605F074FC002070BD70B506463568D3
:1008000023230322072140F6A65005F03FFC0446AF
:10081000AA20207028786070688860806A88201D0F
:10082000696845F033FE204605F059FC002070BD94
:100830002DE9F04107463D683A230322072140F69F
:10084000A15005F023FC0446A42020702878607095
:10085000688860802979217172B60321082005F02B
:10086000B4F9064628783071002070713146FB4893
:1008700002F07EFD62B6204605F031FC0020BDE8A6
:10088000F0812DE9F04107463E680223032207214B
:1008900040F6A25005F0FAFB0446A52020703078FF
:1008A000607072B60321082005F08FF90546307894
:1008B0002871002068712946E94802F059FD62B6A6
:1008C000204605F00CFC0020BDE8F08170B505461F
:1008D0002E680223032207214FF45A6005F0D6FB4D
:1008E0000446A120207030786070204605F0F7FBA8
:1008F000002070BD2DE9F04107463D683A230322F0
:10090000072140F6A15005F0C1FB0446A420207049
:10091000287860701022A91CA01C45F0B7FD72B6A3
:100920000321082005F051F906462878307101208E
:1009300070713146C94802F01BFD62B6204605F0D1
:10094000CEFB0020BDE8F0812DE9F04107463E686E
:1009500002230322072140F6A25005F097FB04462C
:10096000A52020703078607072B60321082005F051
:100970002CF9054630782871012068712946B8485D
:1009800002F0F6FC62B6204605F0A9FB0020BDE8A7
:10099000F08170B505462E680223032207214FF42B
:1009A0005A6005F073FB0446A22020703078607016
:1009B000204605F094FB002070BD2DE9F04107466C
:1009C0003D683A230322072140F6A15005F05EFB63
:1009D0000446A4202070287860703822A91CA01C2E
:1009E00045F054FD72B60321082005F0EEF80646E6
:1009F00028783071022070713146984802F0B8FCB6
:100A000062B6204605F06BFB0020BDE8F0812DE9C1
:100A1000F04107463E6802230322072140F6A25018
:100A200005F034FB0446A52020703078607072B663
:100A30000321082005F0C9F8054630782871022006
:100A400068712946864802F093FC62B6204605F09C
:100A500046FB0020BDE8F08170B505462E680223F4
:100A6000032207214FF45A6005F010FB0446A3202F
:100A7000207030786070204605F031FB002070BD9A
:100A800070B50646356823230322072140F6A65099
:100A900005F0FCFA0446AB20207028786070688866
:100AA00060806A88201D696845F0F0FC204605F0EA
:100AB00016FB002070BD2DE9F04107463D683A2342
:100AC0000322072140F6A15005F0E0FA0446A420D5
:100AD00020702878607068886080A988A180A979D2
:100AE000A171A01CA968A160A989A181A97BA1739A
:100AF000E97BE17372B60321082005F066F806462B
:100B000028783071032070713146544802F030FC6F
:100B100062B6204605F0E3FA0020BDE8F0812DE939
:100B2000F04107463E6802230322072140F6A25007
:100B300005F0ACFA0446A52020703078607072B6DB
:100B40000321082005F041F805463078287103207C
:100B500068712946424802F00BFC62B6204605F057
:100B6000BEFA0020BDE8F08170B5054602230322DD
:100B7000072140F6A25005F089FA0446A62020700D
:100B8000204605F0ACFA002070BD70B505462E6811
:100B900002230322072140F6A35005F077FA04460A
:100BA000A720207030786070204605F098FA002069
:100BB00070BD70B5054602230322072140F6A350FD
:100BC00005F064FA0446A8202070204605F087FA54
:100BD000002070BD70B5054601230322072140F6B1
:100BE000065005F053FA0446AC202070204605F06C
:100BF00076FA002070BD70B5054601230322072157
:100C000040F6065005F042FA0446AE202070204619
:100C100005F065FA002070BD70B50546012303227A
:100C2000072140F6065005F031FA0446AD20207049
:100C3000204605F054FA002070BD70B5054601232A
:100C40000322072140F6065005F020FA04469520BD
:100C50002070204605F043FA002070BD900E002061
:100C6000A40E00202DE9F041064635682878C7001B
:100C7000BB1C0322072140F6915005F007FA0446F9
:100C800092202070287860703A46A01C696845F070
:100C9000FDFB204605F023FA0020BDE8F08170B589
:100CA00005462E6821230322072140F6175005F040
:100CB000EDF904461920207010223146601C45F0E1
:100CC000E5FB102206F1100104F1110045F0DEFBF6
:100CD000204605F004FA002070BD70B505460123DA
:100CE0000322072140F6195005F0D0F904461A20D6
:100CF0002070204605F0F3F9002070BD70B5054660
:100D00002E6811230322072140F6235005F0BEF977
:100D100004462820207010223146601C45F0B6FBA6
:100D2000204605F0DCF9002070BD70B505462E6840
:100D300041230322072140F6295005F0A7F9044674
:100D40002E20207020223146601C45F09FFB20227F
:100D500006F1200104F1210045F098FB204605F042
:100D6000BEF9002070BD70B505462E68022303222F
:100D7000072140F62B5005F089F904462F202070FA
:100D800030786070204605F0AAF9002070BD70B57B
:100D900005462E680823032207214FF4596005F009
:100DA00075F90446222020703068C4F80100B0882C
:100DB000A4F80500B079E071204605F090F9002014
:100DC00070BD70B505462E680823032207214FF435
:100DD000596005F05BF90446232020703068C4F8A0
:100DE0000100B088A4F80500B079E071204605F054
:100DF00076F9002070BD2DE9F04106463568287867
:100E0000070107F108030322072140F6145005F0FB
:100E10003DF904461720207028786070D5F801004D
:100E2000C4F80200B5F80500E0803A4604F1080075
:100E3000A96845F02BFB204605F051F90020BDE8DC
:100E4000F08170B5054601230322072140F60650C4
:100E500005F01CF9044606202070204605F03FF9F5
:100E6000002070BD70B5054601230322072140F61E
:100E7000065005F00BF9044621202070204605F0AD
:100E80002EF9002070BD70B505462E68052303229B
:100E9000072140F6165005F0F9F804461820207096
:100EA000F07820713088A4F80100B078E070204616
:100EB00005F015F9002070BD2DE9F04106463568B2
:100EC000287800EB8000C700BB1C0322072140F6F6
:100ED000915005F0DBF8044691202070287860706E
:100EE0003A46A01C696845F0D1FA204605F0F7F8AB
:100EF0000020BDE8F08170B505462E680623032268
:100F0000072140F6055005F0C1F804460420207082
:100F10003068C4F8010030796071204605F0DFF8D0
:100F2000002070BD70B5054601230322072140F65D
:100F3000065005F0ABF8044605202070204605F069
:100F4000CEF8002070BD70B50546012303220721AD
:100F500040F6065005F09AF80446AE202070204670
:100F600005F0BDF8002070BD70B5054601230322D1
:100F7000072140F6065005F089F804461F2020702E
:100F8000204605F0ACF8002070BD70B50546012381
:100F90000322072140F6065005F078F80446AF20FA
:100FA0002070204605F09BF8002070BD70B5054606
:100FB00001230322072140F6065005F067F8044696
:100FC00020202070204605F08AF8002070BD2DE911
:100FD000F041064635682878C0EBC007B81C83B2DC
:100FE0000322072140F6915005F050F80446902066
:100FF0002070287860703A46A01C696845F046FA6F
:10100000204605F06CF80020BDE8F08170B505467B
:1010100001230322072140F6065005F037F8044665
:1010200008202070204605F05AF8002070BD0146C7
:101030000020704770B505462E6803231A46072125
:1010400040F6B15005F022F80446B0202070307808
:1010500060707078A070204605F041F8002070BDE7
:1010600070B50646356806230322072140F6265050
:1010700005F00CF804462C20207028786070687801
:10108000A070A878E070E878207128796071204617
:1010900005F025F8002070BD70B5064635680623BA
:1010A0000322072140F6265004F0F0FF04462D20CD
:1010B0002070287860706878A070A878E070E87870
:1010C000207128796071204605F009F8002070BD74
:1010D00070B50646356806230322072140F62650E0
:1010E00004F0D4FF04462B202070287860706878C4
:1010F000A070A878E070E8782071287960712046A7
:1011000004F0EDFF002070BD70B5054601230322F9
:10111000072140F6025004F0B9FF04461D2020705C
:10112000204604F0DCFF002070BD70B505460123A9
:101130000322072140F6065004F0A8FF04461C20B5
:101140002070204604F0CBFF002070BD70B506462D
:10115000356808230322072140F6245004F096FF47
:10116000044629202070288860806888A08028791B
:10117000A071204604F0B3FF002070BD70B5054695
:101180002E6804230322072140F6255004F07EFF39
:1011900004462A20207030886080204604F09FFF9B
:1011A000002070BD70B505460E46002411E00B48C6
:1011B00010F83400A8420BD1084800EBC400406886
:1011C00030B1064800EBC40041683046884770BD26
:1011D000641C362CEBD31120F9E700003C02002000
:1011E00070B506463468607830B101281ED00228F8
:1011F0002FD0032859D145E0A0880A3083B2207847
:10120000082242EA0021032240F60B6004F03EFF70
:10121000054660782870A0886880A288281DA1688B
:1012200045F034F9284604F05AFF3FE020780822C0
:1012300042EA00210A23032240F60B6004F026FF55
:10124000054660782870A0886880284604F047FF2B
:101250002CE02078082242EA00210A23032240F6EB
:101260000B6004F013FF054660782870A088688042
:10127000E188A9802189E98061892981284604F0D3
:101280002EFF13E02078082242EA00210A230322DD
:1012900040F60B6004F0FAFE05466078287020796D
:1012A000A870284604F01BFF00E000BF00BF00202C
:1012B00070BD70B5064634682078082242EA0021E5
:1012C0002C23032240F6026004F0E0FE05461022C3
:1012D000611C284645F0DAF854F8140F45F8100F51
:1012E000201D0FC82D1D0FC5143D60696861207E4B
:1012F0002876607E6876A07E143CA876103D28464D
:1013000004F0EDFE002070BD70B505462E68022386
:101310000322082140F6046004F0B8FE04460120D0
:10132000207030786070204604F0D9FE002070BD37
:1013300070B5064635682878082242EA00210E2357
:10134000032240F60E6004F0A1FE0446092020703E
:101350006878607068886080A888A080E888E080ED
:101360002889208168896081A889A081204604F0AD
:10137000B6FE002070BD70B506463468207808229D
:1013800042EA0021062303224FF4616004F07EFE4E
:10139000054660782870A088A88060886880284604
:1013A00004F09DFE002070BD70B505462E683078B3
:1013B000082242EA00210423032240F6326004F0AE
:1013C00065FE04461A20207070886080204604F074
:1013D00086FE002070BD70B505460123032208215A
:1013E00040F6056004F052FE0446072020702046B7
:1013F00004F075FE002070BD70B505460123032280
:10140000082140F6056004F041FE044608202070E3
:10141000204604F064FE002070BD70B505462E68BD
:101420003078082242EA00211E23032240F616608B
:1014300004F02CFE04460B2020701C22B11CA01CC2
:1014400045F024F8204604F04AFE002070BD70B537
:10145000064634682078082242EA0021122303223B
:1014600040F6186004F012FE0546607828701022DD
:10147000A11C681C45F00AF8A07C6874284604F09A
:101480002EFE002070BD70B505462E68307808220B
:1014900042EA00210223032240F61A6004F0F6FD1E
:1014A00004460C20207070786070204604F017FE0F
:1014B000002070BD70B505462E683078082242EADB
:1014C00000210223032240F62D6004F0DFFD0446D4
:1014D0001620207070786070204604F000FE002016
:1014E00070BD70B505462E683078082242EA0021AA
:1014F0001346032240F6126004F0C8FD04460A2099
:101500002070D6F80100C4F80100B6F80500A4F870
:101510000500F079E071204604F0E1FD002070BD87
:1015200070B5064634682078082242EA002122235A
:10153000032240F6146004F0A9FD05466078287087
:10154000A07868702022211DA81C44F09FFF284627
:1015500004F0C5FD002070BD70B5054601230322CF
:10156000082140F6056004F091FD04461520207026
:10157000204604F0B4FD002070BD70B5054601237F
:101580000322082140F6056004F080FD0446022095
:101590002070204604F0A3FD002070BD70B5054604
:1015A00001230322082140F6056004F06FFD044684
:1015B00003202070204604F092FD002070BD70B51D
:1015C000054601230322082140F6056004F05EFD74
:1015D000044604202070204604F081FD002070BDE8
:1015E00070B5054601230322082140F6056004F08A
:1015F0004DFD044605202070204604F070FD0020BB
:1016000070BD70B5054601230322082140F6056030
:1016100004F03CFD044606202070204604F05FFDE7
:10162000002070BD70B5054601230322082140F655
:10163000056004F02BFD044618202070204604F0BD
:101640004EFD002070BD70B5054601230322082120
:1016500040F6056004F01AFD04461920207020466B
:1016600004F03DFD002070BD70B50646346820785A
:10167000082242EA00210223032240F60D6004F012
:1016800005FD054660782870A0786870284604F04B
:1016900026FD002070BD70B505462E683078082202
:1016A00042EA00210423032240F6286004F0EEFC05
:1016B00004461320207070886080204604F00FFDDF
:1016C000002070BD70B5054601230322082140F6B5
:1016D000056004F0DBFC044612202070204604F074
:1016E000FEFC002070BD70B5064634686088001DA1
:1016F00083B22078082242EA0021032240F63360B8
:1017000004F0C4FC05461B2028706088688062884D
:10171000281D616844F0BAFE284604F0E0FC002071
:1017200070BD70B5064634686088001D83B22078AD
:10173000082242EA0021032240F6336004F0A6FCAE
:1017400005461C202870608868806288281D6168B2
:1017500044F09CFE284604F0C2FC002070BD70B529
:10176000064635682878082242EA0021042303222D
:1017700040F62F6004F08AFC044617202070687839
:101780006070A878A070E878E070204604F0A7FCAC
:10179000002070BD70B5064635682878082242EAF8
:1017A00000210623032240F62B6004F06FFC044660
:1017B0001420207068886080A888A080204604F0EB
:1017C0008EFC002070BD70B505460E46002411E069
:1017D0000A4810F83400A8420BD1084800EBC400B6
:1017E000406830B1054800EBC40041683046884786
:1017F00070BD641C1D2CEBD31120F9E7EC03002015
:101800002DE9F04107463D68A8781621484300F1CC
:101810001603032205214FF4306004F037FC06461E
:1018200000203080A878401E707103207080687896
:1018300030716878C0F3411010B1022809D102E07C
:10184000A888F08006E01022A91DB01D44F01EFEFD
:1018500000E000BF00BF012462E004EB4401A8697E
:1018600000EBC100C18A601E00EB400202EBC00227
:1018700006F1160000EB4200418204EB4401A86926
:1018800000EBC100818A601E00EB400202EBC00247
:1018900006F1160000EB4200818204EB4401A869C6
:1018A00000EBC100418A601E00EB400202EBC00267
:1018B00006F1160000EB4200018204EB4401A86926
:1018C00000EBC100808AC0F3413010B1022824D15E
:1018D00010E004EB4401A86900EBC101601E00EBBD
:1018E000400202EBC00206F1160000EB420009883C
:1018F000018013E004EB4403AA6902EBC302911CCC
:10190000621E02EB420303EBC20306F1160202EB76
:101910004300102244F0BAFD00E000BF00BF641C89
:10192000A878A04299D8304604F0D9FB0020BDE841
:10193000F08170B50446256802230322052140F694
:10194000023004F0A3FB064628883080002070BDDA
:1019500070B50446256804230322052140F60430AF
:1019600004F094FB064628883080A878B0700020E8
:1019700070BD70B50446256802230322052140F698
:10198000063004F083FB064628883080002070BDB6
:1019900070B50646346806230322052140F6083058
:1019A00004F074FB05462088288060886880A08841
:1019B000A880002070BD70B504462568022303226C
:1019C000052140F60A3004F061FB06462888308085
:1019D000002070BD70B5064634686088001D83B273
:1019E0000322052140F60C3004F050FB0546208808
:1019F0002880608868806288281D616844F046FD00
:101A0000002070BD70B5044625680423032205211B
:101A100040F60E3004F03AFB06462888308068888D
:101A20007080002070BD70B5044625680423032231
:101A300005214FF4316004F029FB06462E460020B4
:101A400070BD70B50446256802230322052140F6C7
:101A5000123004F01BFB064628883080002070BD41
:101A600070B505460E46002411E00B4810F834000E
:101A7000A8420BD1084800EBC400406830B10648CA
:101A800000EBC40041683046884770BD641C0A2CD6
:101A9000EBD31120F9E70000D404002070B506460E
:101AA00034682078062202EB00210423032240F64A
:101AB000164004F0EBFA0546608828802079A8706B
:101AC000284604F00CFB002070BD70B50646346853
:101AD000A088801D83B22078062202EB0021032219
:101AE00040F6144004F0D2FA054660882880A088A9
:101AF0006880A0792871A288681DA16844F0C6FC9E
:101B0000284604F0ECFA002070BD70B50646346833
:101B10002078062202EB00211346032240F61840EB
:101B200004F0B4FA054660882880A0886880A0790F
:101B30002871284604F0D3FA002070BD70B5044621
:101B400025682878062202EB00210223032240F6B2
:101B50000E4004F09BFA064668883080304604F058
:101B6000BEFA002070BD70B505462E68307806229A
:101B700002EB00210423032240F6014004F086FA20
:101B800004460120207070886080204604F0A7FA87
:101B9000002070BD70B506463468607800F1080317
:101BA0002078062202EB0021032240F6034004F0D5
:101BB0006DFA054602202870607868706088688039
:101BC000A088A880E088E880627805F10800A16814
:101BD00044F05CFC284604F082FA002070BD70B529
:101BE00006463468607800F108032078062202EB8C
:101BF0000021032240F6034004F048FA0546032082
:101C000028706078687060886880A088A880E08804
:101C1000E880627805F10800A16844F037FC2846A6
:101C200004F05DFA002070BD70B506463468607837
:101C300000F108032078062202EB0021032240F67F
:101C4000034004F023FA0546042028706078687089
:101C500060886880A088A880E088E880627805F1C4
:101C60000800A16844F012FC284604F038FA00206D
:101C700070BD70B506463468607800F108032078BE
:101C8000062202EB0021032240F6034004F0FEF995
:101C90000546052028706078687060886880A08894
:101CA000A880E088E880627805F10800A16844F027
:101CB000EDFB284604F013FA002070BD70B506460F
:101CC0003468607800F108032078062202EB0021D6
:101CD000032240F6034004F0D9F905460620287097
:101CE0006078687060886880A088A880E088E88054
:101CF000627805F10800A16844F0C8FB284604F0AA
:101D0000EEF9002070BD70B506463468607800F1C9
:101D100008032078062202EB0021032240F603404C
:101D200004F0B4F905460720287060786870608870
:101D30006880A088A880E088E880627805F10800C3
:101D4000A16844F0A3FB284604F0C9F9002070BD47
:101D500070B5064635682878062202EB00210A2372
:101D6000032240F6084004F091F904460820207050
:101D70006878607068886080686860602889208101
:101D8000204604F0ACF9002070BD70B506463568F9
:101D90002878062202EB00210A23032240F608409D
:101DA00004F074F90446092020706878607068882F
:101DB00060806868606028892081204604F08FF97F
:101DC000002070BD70B5064635682878062202EB03
:101DD00000210A23032240F6084004F057F9044684
:101DE0000A20207068786070688860806868606029
:101DF00028892081204604F072F9002070BD70B55A
:101E0000064635682878062202EB00210A230322C1
:101E100040F6084004F03AF904460B202070687838
:101E200060706888608068686060288920812046CA
:101E300004F055F9002070BD70B50646346820895D
:101E40000C3083B22078062202EB0021032240F6F8
:101E50000A4004F01BF905460C2028706078687071
:101E600060886880A088A880E088E8802089288130
:101E700060896881228905F10C00E16844F006FB65
:101E8000284604F02CF9002070BD70B50646346871
:101E900020890C3083B22078062202EB0021032235
:101EA00040F60A4004F0F2F805460D2028706078EC
:101EB000687060886880A088A880E088E8802089B1
:101EC000288160896881228905F10C00E16844F06D
:101ED000DDFA284604F003F9002070BD70B506460F
:101EE000346820890C3083B22078062202EB00216E
:101EF000032240F60A4004F0C9F805460E20287077
:101F00006078687060886880A088A880E088E88031
:101F10002089288160896881228905F10C00E168A7
:101F200044F0B4FA284604F0DAF8002070BD70B529
:101F3000064635682878062202EB00210423032296
:101F400040F60B4004F0A2F804460F202070687899
:101F5000607068886080204604F0C1F8002070BD81
:101F600070B5064635682878062202EB0021082362
:101F7000032240F60F4004F089F804461020207038
:101F800068886080A888A080E888E080204604F007
:101F9000A6F8002070BD70B5064635682878062280
:101FA00002EB00210823032240F60F4004F06EF8F4
:101FB00004461120207068886080A888A080E88886
:101FC000E080204604F08BF8002070BD70B5064616
:101FD0003468E088083083B22078062202EB0021C2
:101FE00003224FF4416004F051F805461220287096
:101FF00060886880A088A880E088E880E28805F191
:102000000800A16844F042FA284604F068F800206D
:1020100070BD70B506463468E088083083B2207819
:10202000062202EB002103224FF4416004F02EF857
:1020300005461320287060886880A088A880E08802
:10204000E880E28805F10800A16844F01FFA2846FC
:1020500004F045F8002070BD70B506463568287854
:10206000062202EB00210823032240F6114004F06F
:102070000DF804461420207068886080A888A0802D
:10208000E888E080204604F02AF8002070BD70B592
:10209000064635682878062202EB00211823032221
:1020A00040F6194003F0F2FF044615202070A8788E
:1020B0006070A8886080E888A0802889E08010226D
:1020C00005F10A0104F1080044F0E0F9204604F0AB
:1020D00006F8002070BD70B50646356828780622DF
:1020E00002EB00211823032240F6194003F0CEFF33
:1020F000044616202070A8786070A8886080E88860
:10210000A0802889E080102205F10A0104F108006E
:1021100044F0BCF9204603F0E2FF002070BD70B52A
:10212000064635682878062202EB00211823032290
:1021300040F6194003F0AAFF044617202070A87843
:102140006070A8886080E888A0802889E0801022DC
:1021500005F10A0104F1080044F098F9204603F063
:10216000BEFF002070BD70B505460E46002411E08C
:102170000A4810F83400A8420BD1084800EBC4000C
:10218000406830B1054800EBC400416830468847DC
:1021900070BD641C1B2CEBD31120F9E72405002033
:1021A0002DE9F04106460C461746984600BFA4F1BB
:1021B0000C00054629462B4842F0C7FA0120BDE82D
:1021C000F08108B52849032004F08EF928E04FF08B
:1021D000FF326946234842F0C1FA00B120E000987E
:1021E000008905280ED0062810D0072802D008281C
:1021F00010D103E0009800F075FB0CE0009800F0AF
:102200007AFD08E0009800F0CBFD04E0009800F0B3
:1022100095FF00BF00BF00BF009803F0ABFF00BFF9
:10222000D5E700B585B0142004210A020F4BCDE993
:102230000032CDE9021000230D4A0EA1104843F0F0
:102240006AFB04900E4843F0C2FB04900120642313
:102250000C4A0DA10090034842F0DAF804900020E7
:1022600005B000BD30130020906B0400300F00203B
:10227000C32100006573696E666C2065767400008A
:10228000B80E002060130020657674206D62000097
:102290002DE9F04104460D464FF0360820782F28EE
:1022A0007BD028DC1C2879D017DC072877D007DC06
:1022B000072875D2DFE800F07435743AF1F0EF00CA
:1022C00018286ED004DC08286CD0172868D121E1CA
:1022D000192868D01A28F9D1F9E01D381228E8D257
:1022E000DFE800F0EF5EEEEDECEBEA5E5E5E5EFFD7
:1022F000E8E75E5E5EE690382128DAD2DFE800F09B
:10230000F0EFD35050CE505050505050505050508D
:102310001B2A20253E7DAEB2B72F3439BCC6EEED68
:10232000EC00102020702C60BDE8F081112020709E
:102330002C601020F8E7122020702C601020F3E7AA
:102340001A2020702C601020EEE71D2020702C60D9
:102350001020E9E7172020702C601020E4E71320FC
:1023600020702C601020DFE7142020702C601020DB
:10237000DAE71E2020702C601020D5E772B6FA48EC
:1023800001F0ADF807467FB3787968B1012813D022
:10239000022819D0032828D11EE0ACE005E170E046
:1023A00012E1C6E0F2E08DE02E6838793070607896
:1023B00070704FF0120819E02E683879307060782C
:1023C00070704FF0150811E02E6838793070607821
:1023D00070704FF01B0809E02E6838793070607813
:1023E00070704FF0180801E004E000BF00BF3846ED
:1023F00003F0C4FC62B6404696E772B6DB4801F0D3
:102400006EF807463FB3607828B3787930B1012879
:102410000AD002280ED0032818D111E0162020700F
:102420002C604FF0100812E0192020702C604FF043
:1024300010080CE01C2020702C604FF0100806E003
:10244000202020702C604FF0100800E000BF00BF7B
:10245000384603F093FC62B6404665E721202070C1
:102460001D2061E7222020702C6010205CE72320D3
:1024700020702C60102057E7242020702C60102042
:1024800052E7252020702C6010204DE73A20207064
:102490002C60102048E742E05AE054E027202070EA
:1024A0002C60102040E7282020702C6010203BE793
:1024B0001CE084E07EE014E027E021E034E05BE013
:1024C00050E06DE0292020702C6010202CE72A209D
:1024D00020702C60102027E75DE048E03DE02DE013
:1024E0004FE02B2020702C6010201DE72C20207046
:1024F0002C60102018E72D2020702C60102013E78E
:102500002E2020702C6010200EE72F2020702C60D1
:10251000102009E7302020702C60102004E73120C3
:1025200020702C601020FFE6322020702C601020DC
:10253000FAE6332020702C601020F5E6342020705D
:102540002C601020F0E6352020702C601020EBE687
:10255000362020702C601020E6E6372020702C609A
:102560001020E1E6382020702C601020DCE63920B5
:1025700020702C601020D7E63A2020702C601020AC
:10258000D2E63B2020702C601020CDE63C2020704D
:102590002C601020C8E63E2020702C601020C3E67E
:1025A000422020702C601020BEE6432020702C605A
:1025B0001020B9E6442020702C601020B4E645209D
:1025C00020702C601020AFE600BF00BF3620ABE6C5
:1025D0000246507830B101280BD002280ED00328D3
:1025E00016D110E00B681078187090785870112090
:1025F00070470B68107818701420F9E70B68107892
:1026000018701A20F4E70B68107818701720EFE79D
:1026100000BF00BF3620EBE70246507830B10128FA
:1026200014D0022819D003281ED108E00B681078B6
:10263000187090785870D0789870132070470B6895
:1026400010781870907858701920F7E70B68107898
:102650001870907858701620F0E70B681078187092
:10266000907858701C20E9E700BF00BF3620E5E7EE
:1026700002460B68107818701E20704702460B68DF
:10268000107818701F20704702460B681088188059
:10269000202070470246107808280DD0212806D047
:1026A00095280ED10B6850781870222070470B685F
:1026B000507818702220F9E70B68507818702220A3
:1026C000F4E700BF00BF3620F0E770B504460E46C1
:1026D000356820782870207D287560786870208B98
:1026E0002883228B04F11A0105F11A0043F0CEFE73
:1026F000E08AE882A07CA874E07CE874607C68745E
:10270000D4F80900C5F80900B4F80D00A5F80D00CB
:10271000E07BE873D4F80200C5F80200E088E880A6
:10272000207A2872207C2874212070BD70B5044660
:102730000D462E6810222146304643F0A7FE232086
:1027400070BD02460B6810681860506858602420FD
:10275000704770B504460D462E682022214630464B
:1027600043F094FE252070BD900E0020A40E0020A2
:1027700070B504460D462E6820222146304643F0AF
:1027800085FE202204F1200106F1200043F07EFEA8
:10279000262070BD02461078222802D0232816D1A8
:1027A0000AE00B68D2F801001860B2F805009880C2
:1027B000D0799871272070470B68D2F80100186013
:1027C000B2F805009880D07998712820F3E700BF0F
:1027D00000BF3620EFE770B504460D462E6820682E
:1027E0003060A088B0801022A11DB01D43F04EFEC5
:1027F000292070BD02460B68106818609088988088
:1028000090799871D079D8712A20704702460B468A
:10281000196810780870507848709078887090889F
:102820008880D088C88010890881508948812B20F1
:10283000704702460B461968107808705078487047
:102840002C20704702460B46196810880880508873
:1028500048802D20704702460B4619681088088072
:10286000508848802E20704702460B461968108811
:1028700008805088488090888880D088C8802F2021
:10288000704702460B4619681088088050884880B7
:102890003020704702463120704702463220704790
:1028A00002460B68108818803320704702460B6878
:1028B00010681860506858603420704770B504463E
:1028C0000E46356820682860A088A880A079A87185
:1028D000E079E871E27904F10801A86843F0D6FDD7
:1028E000352070BD70B5C2B0054602A80190002425
:1028F00019E00F4830F83400A988884212D10C48FA
:1029000000EBC40001A9426805F10C00904706469F
:102910000848006830B1362E04D03046054A019987
:1029200012689047641C1A2CE3D342B070BD0000BB
:1029300000060020D00600202DE9F04104460D4697
:10294000204600F0FDF907462E683889000A3070ED
:10295000207870705120BDE8F0812DE9F0410446E7
:102960000E46204600F0ECF9074635683889000A23
:10297000287020886880A0782871A088E880E08886
:10298000288120896881A07A2873E07A6873E068DA
:10299000C5F80E00208A68825220BDE8F0812DE93A
:1029A000F04104460E46204600F0CAF90746356855
:1029B0003889000A287020886880A0782871532000
:1029C000BDE8F0810246542070472DE9F0410446ED
:1029D0000E46204600F0B4F9074635683889000AEB
:1029E0002870208868806088A880A088E8805520AA
:1029F000BDE8F0812DE9F04104460E46204600F086
:102A00009FF9074635683889000A28702088688051
:102A10006088A880A088E880E08828815620BDE8EA
:102A2000F0812DE9F04104460D46204600F088F97A
:102A300007462E683889000A307020787070572059
:102A4000BDE8F0812DE9F04104460D46204600F036
:102A500077F907462E683889000A30702068C6F872
:102A60000100207970715820BDE8F0812DE9F04116
:102A700004460D46204600F063F907462E68388963
:102A8000000A3070207870705920BDE8F0812DE97F
:102A9000F04104460E46204600F052F907463568DC
:102AA0003889000A287020886880D4F8020068609D
:102AB000D4F80600A8605A20BDE8F0812DE9F04165
:102AC00004460D46204600F03BF907462E6838893B
:102AD000000A3070207870705B20BDE8F0812DE92D
:102AE000F04104460D46204600F02AF907462E68BC
:102AF0003889000A3070207870705C20BDE8F08161
:102B00002DE9F04104460E46204600F019F907462B
:102B100035683889000A2870206868606068A86095
:102B20005D20BDE8F08102465E20704702465F20CE
:102B300070472DE9F04104460E46204600F000F9AA
:102B4000074635683889000A2870207868701C228A
:102B5000A11CA81C43F09AFC6020BDE8F0812DE97F
:102B6000F04104460E46204600F0EAF80746356874
:102B70003889000A2870207868702022611CA81CFF
:102B800043F084FC6120BDE8F0812DE9F04104466A
:102B90000E46204600F0D4F8074635683889000A0A
:102BA0002870208868806088A8802079A8716220B9
:102BB000BDE8F0812DE9F04104460D46204600F0C5
:102BC000BFF807462E683889000A30702068C6F8BA
:102BD00001006320BDE8F0812DE9F04104460E4676
:102BE000204600F0ADF8074635683889000A28709D
:102BF000207868706088688060686860A068A860F5
:102C00006420BDE8F0812DE9F04104460E462046DF
:102C100000F096F8074635683889000A2870207851
:102C200068706078A8706520BDE8F0812DE9F041FA
:102C300004460D46204600F083F807462E68388982
:102C4000000A3070207870706620BDE8F0812DE9B0
:102C5000F04104460E46204600F072F807463568FB
:102C60003889000A2870207868706088688067203A
:102C7000BDE8F0810146682070472DE9F041044627
:102C80000D46204600F05CF807462E683889000A99
:102C90003070208870806920BDE8F0812DE9F04116
:102CA00004460E46204600F04BF807463568388942
:102CB000000A2870608868806288211D281D43F002
:102CC000E5FB6A20BDE8F0812DE9F04104460E469F
:102CD000204600F035F8074635683889000A287024
:102CE000208868806088A880A088E880E0882881A3
:102CF0006B20BDE8F08170B58AB0054601A8009050
:102D0000002419E0104830F83400A988884212D114
:102D10000D4800EBC4006946426805F10C0090477D
:102D200006460A48006830B16C2E04D03046074A87
:102D3000009912689047641C1B2CE3D30AB070BD45
:102D40000146A1F10C007047D4060020AC0700201A
:102D500002460A607020704702460A607120704780
:102D600002460A607220704702460A60732070476C
:102D700002460A607320704702460A607520704759
:102D800002460A607620704702460A607720704744
:102D900002460A607820704702460A607920704730
:102DA000F8B50446002518E00D4830F83500A18834
:102DB000884211D10A4800EBC5006946426804F117
:102DC0000C00904706460748006828B104F10C0142
:102DD0003046044A126890476D1C0A2DE4D3F8BDB2
:102DE000B0070020000800202DE9F04105460E46FE
:102DF000284600F0C8F9074634683889000A207070
:102E00006878A0706888A080287818284FD2DFE8FA
:102E100000F04E4B2D303336393C1215181B1E4E28
:102E20002124272A0C0F3F4245489520607041E03D
:102E3000962060703EE08B2060703BE08C206070DC
:102E400038E08D20607035E08E20607032E08F2099
:102E500060702FE0912060702CE09220607029E07B
:102E60009320607026E09420607023E085206070DD
:102E700020E0862060701DE0872060701AE08820C6
:102E8000607017E08920607014E08A20607011E0A3
:102E9000972060700EE0982060700BE099206070C1
:102EA00008E09A20607005E08420607002E09120C4
:102EB000BDE8F08100BF8020FAE72DE9F04104462B
:102EC0000E46204600F05FF9074635683889000A4B
:102ED0002870208868806088A8808120BDE8F08103
:102EE0002DE9F04104460E46204600F04CF9074615
:102EF00035683889000A2870208868806088A88032
:102F00002079A871601DA8608220BDE8F0812DE9BC
:102F1000F04104460E46204600F035F90746356874
:102F20003889000A2870208868806088A880A08876
:102F3000E880A0792872E01DE8608320BDE8F08178
:102F40002DE9F04104460E46204600F01CF90746E4
:102F500035683889000A2870208800B26880608847
:102F6000A8802079A8716079E871A01DA8608420EC
:102F7000BDE8F0812DE9F04104460E46204600F000
:102F800002F9074635683889000A2870208800B29F
:102F90006880A0782871E01CA8608520BDE8F081D9
:102FA0002DE9F04104460E46204600F0ECF80746B5
:102FB00035683889000A2870208868806088A88071
:102FC000A088E880A01DA8608620BDE8F0812DE9DA
:102FD000F04104460E46204600F0D5F80746356815
:102FE0003889000A28702078687060886880A08816
:102FF000A880A01DA8608720BDE8F0812DE9F041E0
:1030000004460E46204600F0BEF80746356838896B
:10301000000A28702078687060886880A088A8807E
:10302000A01DA8608820BDE8F0812DE9F04104468C
:103030000D46204600F0A7F807462E683889000A9A
:103040003070208870808920BDE8F0812DE9F04142
:1030500004460D46204600F096F807462E6838894B
:10306000000A3070208870808A20BDE8F0812DE948
:10307000F04104460E46204600F085F807463568C4
:103080003889000A2870208868806088A880A08815
:10309000E880A01DA8608B20BDE8F0812DE9F041FB
:1030A00004460D46204600F06EF807462E68388923
:1030B000000A3070208870808C20BDE8F0812DE9F6
:1030C000F04104460E46204600F05DF8074635689C
:1030D0003889000A2870207868701022611CA81CAA
:1030E00043F0D4F9608A6882A08AA88204F11600AD
:1030F000A8618D20BDE8F0818E2070472DE9F04158
:1031000004460D46204600F03EF807462E683889F2
:10311000000A307074608F20BDE8F0812DE9F04125
:1031200004460D46204600F02EF807462E683889E2
:10313000000A307074609020BDE8F08170B588B0EE
:10314000054601A80090002419E0114830F8340029
:10315000A988884212D10E4800EBC4006946426833
:1031600005F10C00904706460A48006830B1912EE0
:1031700004D03046074A009912689047641C112C0D
:10318000E3D308B070BD0146A1F10C007047000008
:10319000040800208C08002070B504461CB96F4854
:1031A00000F0DEF811E005E06C4800F098F9054603
:1031B00002F0E4FD00BF6949096809B9012100E096
:1031C0000021084600BF0028EED0002063490875A2
:1031D00070BD2DE9F04180460D4616461F4603217D
:1031E000404602F0F2FC04466560A6606761204636
:1031F000BDE8F08170B504460D4616462146574895
:1032000000F0B6F8E56026615448007D30B9012031
:1032100052490875D4E9030106F0F4F870BD2DE9B0
:10322000F04705460E4617469846DDF8209067B9E8
:103230004B46424600211820FFF7CBFF044632469A
:1032400029462046FFF7D6FF1AE04B4642460021AA
:103250003820FFF7BEFF04461022294604F118006B
:1032600043F014F91022314604F1280043F00EF91E
:1032700004F1280204F118012046FFF7BBFF00BF4C
:10328000BDE8F08770B58AB005460E46002407E019
:1032900000BF43F0E9F802A941F82400601CC4B261
:1032A000082CF5DB2B46012206A902A80096FFF7A1
:1032B000B6FF0AB070BD2DE9F04106460F4627481B
:1032C00000F00DF9044600BF2448006805460020C0
:1032D000224908752DB101200875D5E9030106F0D2
:1032E00091F8BCB14FF0010836B9606820B1394699
:1032F0002046626890478046B8F1000F09D0A06868
:1033000020B139463046A36862699847204602F0EA
:1033100035FD00BFBDE8F08170B504465D1E68B2A2
:1033200005E00D5C165C75402554451E68B200280A
:10333000F7DA70BD10B502460F2008E0135C5C00A0
:10334000431ED35C44EAE3130B54431ED8B2012856
:10335000F4DA13785B061B0E0B7010BDF01400201E
:103360000021016041608160C160491E01617047B8
:1033700070B504460D4600BF25B96F22EDA1F8A037
:10338000FCF73EFF00BF204600F097FA08B1256029
:1033900001E060680560656000202860A068401C4E
:1033A000A060D4E90210884201D2A068E06070BD3C
:1033B0002DE9F05F04460E4691461F46DDE90AAB53
:1033C0002046FFF7CDFF4FF0000832E0BAF1000FC2
:1033D00004D04A465146304643F058F8781E4045DE
:1033E00020D1BBF1000F1DD0354600BF25B94722C3
:1033F000D0A1DBA0FCF704FF00BF204600F05DFA7F
:1034000008B1256001E06068056065600020286003
:10341000A068401CA060D4E90210884201D2A068D4
:10342000E06003E031462046FFF7A2FF4E4408F17A
:103430000108B845CAD3BDE8F09F2DE9F041044624
:103440000D46164600BF25B98D22BAA1C9A0FCF7CA
:10345000D7FE00BF00BF26B98E22B6A1CAA0FCF7D6
:10346000CFFE00BF204600F028FA08B1256001E039
:10347000606805606660002030600023284602E036
:10348000591CCBB200680028FAD1A168491CA16080
:10349000D4E902128A4201D9174600E00F46E760DC
:1034A000BDE8F08170B504460D4600BF25B9B622CF
:1034B000A0A1ABA0FCF7A4FE00BF204600F0FDF9E0
:1034C00000B16560206828602560A068401CA0608D
:1034D000D4E90210884201D2A068E06070BD0146C4
:1034E000086878B10A6812680A600A680AB90A6846
:1034F0004A608A68521E8A608B680A699A4201D9BA
:103500008A680A6170472DE9F04104460E464FF083
:10351000000800BF24B9ED2286A1A0A0FCF770FE30
:1035200000BF002725681DE0B54202D14FF0010819
:103530001AE02F4600BF20682968884205D1A9B249
:103540002814FE237BA2FCF75DFE00BF00BF2868A5
:10355000A84205D1A9B22814FF2376A2FCF752FE97
:1035600000BF2D68002DDFD100BFB8F1000F12D0D1
:1035700017B93068206001E0306838606068B04298
:1035800000D16760A068401EA060A16820698842E1
:1035900001D9A06820614046BDE8F08170B50446BD
:1035A0000E46154600BF2CB94FF4947261A17BA062
:1035B000FCF726FE00BF00BF2DB940F229125DA125
:1035C0007AA0FCF71DFE00BF76B900BF2068A842B4
:1035D00005D04FF4977257A17AA0FCF711FE00BFF7
:1035E0002068006820600CE000BF3068A84205D069
:1035F00040F235124FA17BA0FCF702FE00BF286805
:1036000030606068A84200D16660A068401EA0607B
:10361000A1682069884201D9A068206170BD70B599
:1036200004460E46154600BF2CB940F24F1241A188
:103630005AA0FCF7E5FD00BF00BF2DB94FF4A872FA
:103640003CA151A0FCF7DCFD00BF16B92868206042
:1036500001E0286830606068A84200D1666070BDF3
:1036600003460A46196800E00968914201D0002922
:10367000FAD1914201D1012070470020FCE770B5DA
:1036800005460C4600BF204600F017F928B14FF45C
:10369000BD7228A15CA0FCF7B3FD00BF284600F076
:1036A0000CF920B1206828606068686004E0206838
:1036B000696808606068686000202060A868A16888
:1036C0000844A8600020A06070BD2DE9F0410446C8
:1036D0000F46154600BF2DB94FF4CC7215A151A06D
:1036E000FCF78EFD00BF27B929462046FFF7DAFE1A
:1036F0001EE04FF00008266801E0B0463668BE4282
:1037000001D0002EF9D1B8F1000F04D1294620468E
:10371000FFF7C8FE0BE0C8F800502E60A068401C00
:10372000A060D4E90210884201D2A068E06000BF26
:10373000BDE8F0812E2E5C2E2E5C2E2E5C636F6D0C
:10374000705C6D6F64756C65735C636F6D6D6F6ECF
:103750005C7372635C636F5F6C6973742E630000EB
:103760006C6973745F68647220213D204E554C4C27
:103770000000000066697273745F68647220213D06
:10378000204E554C4C0000006C6173745F6864728D
:1037900020213D204E554C4C000000006C69737494
:1037A00020213D204E554C4C00000000656C745F9C
:1037B000746F5F72656D5F68647220213D204E55A5
:1037C0004C4C0000656C745F746F5F72656D5F6870
:1037D0006472203D3D206C6973742D3E666972737E
:1037E00074000000656C745F746F5F72656D5F6874
:1037F0006472203D3D20656C745F7265665F68642D
:10380000722D3E6E6578740021636F5F6C6973740E
:103810005F69735F656D707479286C6973743229A0
:1038200000000000656C745F746F5F6164645F68C2
:10383000647220213D204E554C4C00002DE9F04192
:1038400004460F46164600BF3EB940F2C512AFF21D
:103850001C11AFF23000FCF7D3FC00BF27B9314692
:103860002046FFF785FD1CE0256800E02D68BD427D
:1038700001D0002DFAD125B931462046FFF778FD59
:103880000EE0286800B96660286830602E60A06885
:10389000401CA060D4E90210884201D2A068E06018
:1038A00000BFBDE8F081014600200A6802E012680E
:1038B000431C98B2002AFAD1704701460A680AB937
:1038C000012200E000221046704700000246104628
:1038D00000F8011B0B0A00F8013B0B0C00F8013B40
:1038E000704770B50446204600F039FB0546A01C21
:1038F00000F035FB064645EA064070BD024610461C
:1039000000F8011B0B0A00F8013B0B0C00F8013B0F
:103910000B0E03707047024602F8011B0B0A13706E
:10392000704704E0531E9AB28B5C0370401C002A5F
:10393000F8DC7047014600BF4FF47F0000EA012029
:1039400040EA01604FF47F4202EA1122104340EA4C
:103950001160704770B50446002500BF24B9862267
:10396000ECA1F7A0FCF74CFC00BF2168481C2060CC
:103970000878303885B208E02168481C2060087853
:1039800030380A2101FB050085B220680078302814
:1039900003DB206800783928EEDD284670BD70B55D
:1039A00003460C4600211BE0A618761E761A3578D1
:1039B00028090A2801DA302600E037260644F0B24A
:1039C00003F8110005F00F000A2801DA302600E0A4
:1039D00037260644F0B2022606FB01367070491CF9
:1039E0009142E1DB70BD10B502460B46002107E0B5
:1039F000505C5C5CA04201D0002010BD481CC1B2EC
:103A00000629F5DB0120F8E730B501460022042045
:103A10000BE00B5C03F00F04CC4D2C5D05EB231584
:103A20002D782C441444E2B2401E0028F1DA1046EE
:103A300030BD2DE9FF4F87B081468A4600200690B1
:103A400054464D460A980AEB000B14980590BAF1BB
:103A5000000F04D0B9F1000F01D0012000E00020D8
:103A6000049000BF149820B9EB22AAA1B8A0FCF7DB
:103A7000C7FB00BF0126002003904FF00108059806
:103A800000783C2804D100BF0598401C059007E051
:103A9000059800783E2803D100260598401C059023
:103AA000BBE005980078302807DB059800783928B6
:103AB00003DC05A8FFF74EFF8046059800780290CA
:103AC0000598401C05900298482837D006DC42280B
:103AD0000FD044285CD0472879D106E04C2878D014
:103AE0004E282AD06E28F7D102E00120039000BFB3
:103AF00000BF0498A8B104EB0800584502D9012082
:103B0000069088E0039808B1012E05D1424621466F
:103B1000284642F0BBFC04E0424621462846FFF717
:103B200000FF454444444FF0010802986E2801D13B
:103B300014F8018C002003906DE000BF601C20F0A1
:103B400001070498B0B1B81C584502D9012006906D
:103B500061E03EB1388800BF014601902846FFF77A
:103B6000DAFE07E0388800F017FA0146019028468F
:103B7000FFF7D1FE02984E2807D116B1388800BF52
:103B800002E0388800F008FA8046BC1CAD1C42E018
:103B9000E01C20F003070498B0B1381D584502D945
:103BA0000120069037E03EB1386800BF0146019021
:103BB0002846FFF78BFE07E0386800F0E0F9014681
:103BC00001902846FFF782FE3C1DED1C23E01FE01C
:103BD000FFE7E01C20F003070498B0B1381D5845FA
:103BE00002D90120069016E03EB1386800BF0146B8
:103BF00001902846FFF782FE07E03868FFF79AFE3B
:103C0000014601902846FFF779FE3C1D2D1D02E07C
:103C10000320069000BF00BF00BF0598007818B1D0
:103C2000069800283FF43DAF069820B9A5EB09009F
:103C300081B20998018006980BB0BDE8F08F2DE99C
:103C4000FF4F87B0814600200690089C4D46089C97
:103C50000A9804EB000A09980088484405901498D3
:103C60000490B9F1000F03D0089808B1012000E0DA
:103C7000002003900126002002900127049800787C
:103C80003C2804D100BF0498401C049007E004982D
:103C900000783E2803D100260498401C049000BF01
:103CA000149828B940F2C7121AA129A0FCF7A8FA63
:103CB00000BF11E104980078302807DB04980078F1
:103CC000392803DC04A8FFF745FE0746049800786E
:103CD00001900498401C04900198482863D006DCA9
:103CE00042280FD0442871D0472870D106E04C28D4
:103CF0006ED04E2856D06E28F7D102E001200290F7
:103D000000BF00BF039858B3E019504529D90120DE
:103D10000690DFE02E2E5C2E2E5C2E2E5C636F6DE7
:103D2000705C6D6F64756C65735C636F6D6D6F6EE9
:103D30005C7372635C636F5F7574696C732E630090
:103D4000666D745F637572736F7200009C6B040024
:103D5000666F726D617420213D204E554C4C000001
:103D600015E0E9190598814202D902200690B1E0D8
:103D7000029808B1012E05D13A462146284642F064
:103D800085FB04E03A4621462846FFF7CAFD3D443C
:103D90003C44012701986E2801D114F8017C0020D1
:103DA000029097E000BF681C20F00108039810B350
:103DB000A01C504502D9012006908BE008F10200BA
:103DC0000599884205D90220069083E029E07EE02B
:103DD00052E046B1204600F0C2F8834600F0EBF80E
:103DE000A8F8000007E0204600F0B9F8834600F08C
:103DF000DCF8A8F8000001984E280ED136B1204614
:103E000000F0ADF8834600F0D6F805E0204600F05B
:103E1000A6F8834600F0C9F8074608F10205A41C7D
:103E200058E0E81C20F0030B039808B3E01C504551
:103E300002D9012006904DE00BF10400059988425B
:103E400002D90220069045E04EB1204600F08DF8E0
:103E50008046404600BF00BFCBF8000008E0204687
:103E600000F083F88046404600F089F8CBF8000067
:103E70000BF10405E41C2DE0E81C20F0030B039873
:103E800008B3201D504502D90120069022E00BF115
:103E900004000599884202D9022006901AE04EB12A
:103EA0002046FFF71EFD8046404600BF00BFCBF80E
:103EB000000008E02046FFF714FD80464046FFF76B
:103EC00039FDCBF800000BF10405241D02E00320AE
:103ED000069000BF00BF00BF0498007818B1069894
:103EE00000283FF4E7AE544501D901200690A5EB28
:103EF000090081B20998018006980BB0BDE8F08FE7
:103F000070B504460D46002635B1012D08D0022DAE
:103F10000AD0032D15D10EE004F10A00C6001BE003
:103F200004F10B00860017E0A01C4FF4147101EBA4
:103F3000801086B210E0A01C4FF4D77101EB001680
:103F40000AE000BF40F2B523AFF2382229462046EE
:103F5000FCF758F900BF00BF00BF304670BD0146F6
:103F60000A784B7842EA0320704770B50446204631
:103F7000FFF7F5FF0546A67845EA064070BD014605
:103F800000BF4FF47F0000EA014001F47F4210437C
:103F9000C1F3074210437047014600BF4FF47F4012
:103FA00000EA012040EA1120704710B5044620467F
:103FB000FFF7F2FF10BD00BF00BF704710B5044609
:103FC0002CB91249022002F08FFA00F04DF8204679
:103FD00001F0E4F910BD70B5044601234FF611421B
:103FE000002141F2011002F051F80546B4F1A53F5D
:103FF00002D10320287004E0B4F1C33F01D10020B6
:10400000287028463CF00CFF70BD0000786C04005E
:1040100010B572B6002404E0FF202F490855601C3B
:10402000C4B2302CF8DB002416E02C48005DFF28D9
:1040300010D000BF2948005D302806DB2749085D05
:10404000512327A23021FCF7DDF800BF2348005D93
:1040500021490C54601CC4B2042CE6DB00202B491F
:10406000486600BF62B610BD08B50420009028481D
:104070001A4A694603683220984728B1FF20174939
:10408000087048708870C870FFF7C2FF08BD70B52F
:10409000124C204600F01AF80546A01C00F016F855
:1040A000064645EA064070BD10B504460B49084671
:1040B00000F8014B220A00F8012B220C00F8012B1A
:1040C000220E027000BFFFF7A3FF10BD01460A7861
:1040D0004B7842EA03207047081500209008002022
:1040E0002E2E5C2E2E5C2E2E5C636F6D705C6D6FC1
:1040F00064756C65735C6462675C7372635C646254
:10410000675F7377646961672E63000000000C408D
:10411000A42000202DE9F04106460F4690461C469B
:1041200082232246002141F2011001F0AFFF054633
:104130001120287028463CF073FE0020BDE8F08175
:104140002DE9F04105460E461746984601234FF6E5
:104150000242002141F2011001F098FF04461120B3
:10416000207020463CF05CFE0020BDE8F0812DE987
:10417000F04106460C461746984601234FF6034287
:10418000002141F2011001F081FF05462078FA4A32
:10419000916888470020287028463CF041FE0020A6
:1041A000BDE8F0812DE9F04106460F4690461C46D9
:1041B00002232246002141F2011001F067FF05466B
:1041C0001120287028463CF02BFE0020BDE8F0812D
:1041D0002DE9F04106460F4690461C460123224633
:1041E000002141F2011001F051FF05461120287015
:1041F00028463CF015FE0020BDE8F0812DE9F04195
:1042000006460F4690461C4601232246002141F2F5
:10421000011001F03BFF05461120287028463CF0B4
:10422000FFFD0020BDE8F0812DE9F04106460F4674
:1042300090461C4682232246002141F2011001F0E3
:1042400025FF05461120287028463CF0E9FD002096
:10425000BDE8F0812DE9F04107460D4690461E4627
:1042600082233246002141F2011001F00FFF044683
:10427000802060702878C049A21C0B68611C984798
:104280000020207020463CF0CBFD0020BDE8F081EE
:104290002DE9F04107460C4690461D4601232A466B
:1042A000002141F2011001F0F1FE0646A1782078CC
:1042B000B14A5368E21C98470020307030463CF009
:1042C000AFFD0020BDE8F0812DE9F04105460E4626
:1042D0001746984608234FF61042002141F201107C
:1042E00001F0D4FE0446231DE21CA11C601C01F059
:1042F000D3FA10B90020207006E0112020700020B1
:104300006070A070E070A0800020E08020463CF04B
:1043100087FD0020BDE8F0812DE9FC5F81460E4657
:1043200092469B4600BFA6F10C00804601F022FF9A
:10433000002406E0204601F06EFE2DF81400601CFB
:10434000C4B2042CF6DB01F077FE074610234FF6CB
:104350001242002141F2011001F098FE05460024AE
:1043600006E03DF81410A81C20F81410601CC4B21C
:10437000042CF6DBEF600020287028463CF050FD4E
:104380000120BDE8FC9F2DE9F04106460D46174689
:10439000984608234FF63942002141F2011001F0FE
:1043A00075FE04462888754A116A88476060288827
:1043B00060800020207020463CF032FD0020BDE8E7
:1043C000F0812DE9F04106460C4617469846042335
:1043D0004FF63A42002141F2011001F057FE054626
:1043E0002088664B61685A6A904720886880002060
:1043F000287028463CF014FD0020BDE8F0812DE92E
:10440000F04780460C4691461D46002601234FF694
:104410001142294641F2011001F038FE074620788A
:1044200010B1012806D102E04FF0C33603E04FF08F
:10443000A53600E000BF00BF16B13046FBF7EFFE27
:104440001220387038463CF0EBFC0020BDE8F087C5
:104450004B49088070472DE9F04107460C469046CD
:104460001E4608234FF66142314641F2011001F029
:104470000DFE0546206800284DD0206803284AD844
:1044800000203F490880208881B22068401EC0EB90
:10449000C0003C4A02EB80008182D4E90001401E4A
:1044A000C0EBC00002EB800041602068401EC0EB02
:1044B000C00002EB8000A16881602068401EC0EB54
:1044C000C00002EB8000E168C1602068401EC0EBC4
:1044D000C00002EB8000216901612B492068401E69
:1044E000C0EBC00002EB80008161217D2068401E8E
:1044F000C0EBC00002EB800081752168491EC1EB52
:10450000C10102EB81003DF08BFF002028701C48A8
:104510000088686001E00220287028463CF080FC9A
:104520000020BDE8F0812DE9F04107460C46904699
:104530001E4601234FF66242314641F2011001F05E
:10454000A5FD0546206870B1206803280BD82168B6
:10455000491EC1EBC1010B4A02EB81003DF0E2FFB5
:104560000020287001E00220287028463CF058FC0A
:104570000020BDE8F0810000A42000207020002071
:104580009408002038150020514400002DE9FF4711
:1045900080460C4691461D4601234FF6634229464C
:1045A00041F2011001F072FD0646208880B2ADF89C
:1045B0000C0060680090A0680290E0680190684676
:1045C0003DF0D1FF0746377030463CF029FC002013
:1045D00004B0BDE8F0872DE9F04389B080460C4671
:1045E00091461E4610234FF66442314641F20110B7
:1045F00001F04CFD0546208880B2ADF814006068DB
:104600000190A0680290E068039020690490207DEA
:104610008DF8160000208DF8170001A83DF089FFE5
:1046200007462F70069868600798A8600898E860A9
:1046300028463CF0F5FB002009B0BDE8F0832DE9E9
:10464000F04781460E4617461D464FF000080024ED
:1046500016E00E4830F83400A84210D10B4800EBA9
:10466000C400406850B1094800EBC4002B463A46EC
:104670003146D0F804C02846E047804602E0641C7A
:10468000122CE6D300BF4046BDE8F087E06B040083
:104690000246104600F8011B0B0A00F8013B0B0C08
:1046A00000F8013B0B0E03707047024602F8011B35
:1046B0000B0A1370704770B505460C4600BF022CFC
:1046C00005DD4FF4CF72EEA1F7A0FBF799FD00BF17
:1046D000C5EB051000EB4000F74901EB400030F856
:1046E000140070BD0020F549486000BF00BF00BF46
:1046F0000846406820F00100401C486000BF00BF31
:1047000000BF00BF0846406820F00200801C4860DF
:1047100000BF00BF00BF00BF0846406820F0040093
:10472000001D486000BF00BF00BF00BF08464068D2
:1047300040F00800486000BF00BF00BF00BF08464F
:10474000406840F01000486000BF00BF00BF00BFDD
:104750000846406840F02000486000BF00BF00BF2E
:1047600000BF0846406840F04000486000BF00BFFE
:1047700000BF00BF0846406840F08000486000BFAE
:1047800000BF00BF00BF0846406840F400704860AA
:1047900000BF00BF00BF00BF0846406840F4806013
:1047A000486000BF00BF00BF00BF0846406840F43B
:1047B0008050486000BF00BF00BF00BF084640688F
:1047C00040F40050486000BF00BF00BF00BF084673
:1047D000406840F48040486000BF00BF00BF00BF99
:1047E0000846406840F48030486000BF00BF00BF0A
:1047F00000BF0846406840F40020486000BF704792
:1048000010B5032001F0A7F800F095FF10BD70B5BA
:104810000546AA48007800F00100A8B16889083070
:1048200086B206F10B0188B200F09BFE044654B13B
:10483000002004F8010B3246291D204641F026FED7
:10484000032001F063F800BF70BD2DE9F047054675
:10485000884616461F469948007800F00100F0B1DE
:104860004FF0070909F10B0000F07BFE0446ACB1E4
:10487000012004F8010B29462046FFF716FFA41C6F
:1048800041462046FFF711FFA41C31462046FFF7A2
:104890000CFFA41C2770032001F038F800BFBDE80E
:1048A000F0872DE9F0470546884616461F4683489F
:1048B0000078C0F34000D8B14FF0080909F10B00AF
:1048C00000F04FFE044694B104F8015B41462046D7
:1048D000FFF7DEFE241D31462046FFF7E6FEA41C4E
:1048E00039462046FFF7E1FE032001F00FF800BF34
:1048F000BDE8F0872DE9F04106460D46032D12D0A4
:104900006E480078C0F3800068B1012707F10B0002
:1049100000F027FE04462CB104F8016B257003203B
:1049200000F0F4FF00BFBDE8F0812DE9F047054637
:104930000E461746984661480078C0F3C000C0B1E3
:104940004FF0090909F10B0000F00BFE04467CB1A1
:1049500004F8015B04F8016B39462046FFF798FE26
:10496000241D41462046FFF793FE032000F0CEFFB2
:1049700000BFBDE8F08770B5044650480078C0F32A
:10498000001058B1002606F10B0000F0EAFD0546C4
:104990001DB12C70032000F0B9FF00BF70BD2DE9E0
:1049A000F84F05460E4617469846DDF828904348CE
:1049B0000078C0F34010002830D0102000904FF055
:1049C0001A0A0AF10B0000F0CCFD04462CB304F8DF
:1049D000015B5C21304641F093FD00F1010B59462B
:1049E000204641F084FD103439462046FFF75DFE35
:1049F000A41C41462046FFF74BFE241D4946204695
:104A0000FFF746FE72B600F096FE62B6002000E0A8
:104A1000401C2B498842FBDB00BF00BFBDE8F88F7C
:104A20002DE9F041044625480078C0F3801020B3FA
:104A3000052606F10B0000F094FD0546E5B10D20BA
:104A400005F8010B05F8014B00BF1E4901EB0410EE
:104A50000088074639462846FFF727FEAD1C00BFF1
:104A6000184901EB04100089074639462846FFF72C
:104A70001CFE032000F04AFF00BFBDE8F0810000EB
:104A80002E2E5C2E2E5C2E2E5C706C665C64726921
:104A90007665725C7265675C7265675F656D5F62A3
:104AA0006C655F63732E68007265675F6964782068
:104AB0003C3D20320000000054810C40980800204A
:104AC000FFFF050000800C402DE9F04105460E4631
:104AD000FE480078C0F38010B0B1042707F10B0046
:104AE00000F03FFD044674B10E2004F8010B294686
:104AF0002046FFF7DAFDA41C31462046FFF7D5FD1E
:104B0000032000F003FF00BFBDE8F0812DE9F04174
:104B100005460E461746ED480078C0F38010C8B130
:104B20004FF0090808F10B0000F01BFD044684B1AA
:104B3000102004F8010B29462046FFF7A9FD241D8B
:104B400004F8016B39462046FFF7A2FD032000F070
:104B5000DDFE00BFBDE8F08170B50546DB4800789A
:104B6000C0F3C01090B15A2606F10B0000F0F9FC1A
:104B7000044654B1112004F8010B5A22294620465C
:104B800000F049FC032000F0C1FE00BF70BD2DE91C
:104B9000F04105460E461746CC480088C0F3402039
:104BA000B8B14FF0160808F10B0000F0DAFC04462B
:104BB00074B1132004F8010B04F8015B04F8016BD5
:104BC00014223946204600F026FC032000F09EFE09
:104BD00000BFBDE8F0812DE9F0470646884615463E
:104BE0001F46BA480088C0F38020D0B105F1030900
:104BF00009F10B0188B200F0B4FC044684B104F85A
:104C0000016B41462046FFF750FDA41C04F8015BF0
:104C10002A463946204641F039FC032000F076FE52
:104C200000BFBDE8F0872DE9F047064688461546E7
:104C30001F46A6480088C0F30030F0B1281D1FFAB7
:104C400080F909F10B0188B200F08BFC04469CB19D
:104C500004F8016B41462046FFF727FDA41C2946B6
:104C60002046FFF722FDA41CB9B22A46204600F0D8
:104C7000D2FB032000F04AFE00BFBDE8F0872DE91B
:104C8000F04105460E4691480088C0F30030B0B1AF
:104C9000042707F10B0000F064FC044674B11C20EB
:104CA00004F8010B29462046FFF7FFFCA41C3146FF
:104CB0002046FFF7FAFC032000F028FE00BFBDE805
:104CC000F0812DE9F04105460E4617467F480088E1
:104CD000C0F34030F8B14FF0310808F10B0000F09C
:104CE00040FC0446B4B11D2004F8010B29462046BF
:104CF000FFF7CEFC241D39462046FFF7C9FC241DD2
:104D000004F8016B28223946204641F0BFFB0320FE
:104D100000F0FCFD00BFBDE8F0812DE9F041054643
:104D20000E466A480088C0F3403080B1042707F17E
:104D30000B0000F016FC044644B104F8015B314658
:104D40002046FFF7A5FC032000F0E0FD00BFBDE812
:104D5000F08170B505465D480088C0F34030F0B181
:104D60000D2606F10B0000F0FCFB0446B4B1212037
:104D700004F8010B29462046FFF78AFC241DA87D74
:104D800004F8010B20462969FFF782FC241D204608
:104D90006968FFF77DFC032000F0B8FD00BF70BD1F
:104DA0002DE9F0470746884615461E46B5421DD0F8
:104DB00046480088C0F38030C0B14FF0050909F1C2
:104DC0000B0000F0CEFB04467CB1232004F8010B5D
:104DD00039462046FFF769FCA41C04F8018B04F84F
:104DE000015B2670032000F091FD00BFBDE8F08755
:104DF0002DE9F04106460D46174634480068C0F3D9
:104E00000040F8B1281D1FFA80F808F10B0188B2A4
:104E100000F0A7FB0446A4B1242004F8010B31469E
:104E20002046FFF742FCA41C29462046FFF73DFC24
:104E3000A41C2A463946204641F028FB032000F0F6
:104E400065FD00BFBDE8F0812DE9F04706468846C4
:104E500015461F461D480068C0F30040F0B1281DEC
:104E60001FFA80F909F10B0188B200F07AFB0446C1
:104E70009CB104F8016B41462046FFF716FCA41CC8
:104E800029462046FFF711FCA41C2A463946204635
:104E900041F0FCFA032000F039FD00BFBDE8F087C7
:104EA0002DE9F04107460D46164608480068C0F354
:104EB000404020B305F1030808F10B0188B200F06F
:104EC00050FB0446D4B1332002E0000098080020D3
:104ED00004F8010B384600F0B3FA04F8010B384629
:104EE00000F0B9FA04F8010B04F8015B2A463146D8
:104EF000204641F0CBFA032000F008FD00BFBDE8DA
:104F0000F0812DE9FC4106460D46F6480068C0F3E5
:104F10004040002839D0082707F10B0000F021FBA2
:104F200004468CB3342004F8010B304600F0A8FA94
:104F30008DF80000284600F079FA8DF80100002174
:104F40002846FFF7B8FB804641460DF10200FFF707
:104F5000ACFB01212846FFF7AEFB8046414601A885
:104F6000FFF7A3FB02212846FFF7A5FB8046414639
:104F70000DF10600FFF799FB009820600198606032
:104F8000032000F0C3FC00BF00BFBDE8FC81FEB5FC
:104F900005460E46D3480068C0F3404028B30927B1
:104FA00007F10B0000F0DDFA0446ECB1292004F80B
:104FB000010B284600F044FA8DF80000284600F066
:104FC0004AFA8DF80100062231460DF1020000F088
:104FD00022FA00982060019860609DF80800207215
:104FE000032000F093FC00BF00BFFEBD77B583B087
:104FF0000546BC480068C0F3404018B3082606F1D7
:105000000B0000F0AEFA0446DCB1302004F8010BCE
:10501000284600F035FA8DF80400284600F006FA1C
:105020008DF805000498CDF80600BDF81400ADF821
:105030000A000198206002986060032000F066FC7E
:1050400000BF00BF06B070BDFEB506460C46A548C1
:105050000068C0F3404000283AD094F8200000F1E6
:105060000A0707F10B0000F07CFA05467DB33120FA
:1050700005F8010B304600F0E3F98DF800003046EA
:1050800000F0E9F98DF801006068CDF80200208990
:10509000ADF80600E07D8DF8080094F820008DF84A
:1050A00009000098286001986860BDF80800288110
:1050B0000A35608C94F82430184481B29DF8092098
:1050C000284600F0A8F9032000F020FC00BF00BF34
:1050D000FEBD2DE9FC4106460D4682480068C0F33E
:1050E0004040002839D0082707F10B0000F039FABA
:1050F00004468CB3312004F8010B304600F0C0F9AF
:105100008DF80000284600F091F98DF8010000218B
:105110002846FFF7D0FA804641460DF10200FFF71E
:10512000C4FA01212846FFF7C6FA8046414601A885
:10513000FFF7BBFA02212846FFF7BDFA8046414639
:105140000DF10600FFF7B1FA009820600198606049
:10515000032000F0DBFB00BF00BFBDE8FC81F8B519
:10516000054660480068C0F38040E8B16888801C4C
:1051700086B206F10B0188B200F0F3F9044694B14F
:10518000352004F8010B68880090BDF800002080ED
:10519000A41CBDF800202988204600F03CF903201B
:1051A00000F0B4FB00BF00BFF8BD2DE9F84F064684
:1051B0000C464C480068C0F34040002840D02046D0
:1051C00000F054F900F1040A0AF10B0000F0C9F9EB
:1051D0000546002D33D005F8016B204600F046F956
:1051E000ADF8020000BFC4EBC4003F4901EB400032
:1051F000B0F8FE06ADF80000009828602D1DA0460E
:10520000C8EBC80001EB4000B0F8FE9600BF00BF3D
:105210004FEA19404FEA004028B14FF4CE7233A153
:105220003EA0FAF7EDFF00BF4F46BDF80220394619
:10523000284600F0F0F8032000F068FB00BF00BF34
:10524000BDE8F88F2DE9F04180460E461546254809
:105250000068C0F3C040002843D00227012E06D0CA
:10526000022E07D0032E08D0042E0AD106E0781CA7
:1052700087B20FE0B81C87B20CE000BF381D87B2C0
:1052800008E000BF40F25E422FA12EA0FAF7B8FF5F
:1052900000BF00BF00BF07F10B0188B200F061F949
:1052A0000446002C77D0382004F8010B04F8018B59
:1052B00004F8016B012E06D0022E08D0032E0BD06D
:1052C000042E5AD154E0287804F8010B60E02988B4
:1052D0002046FFF7EAF95BE020462968FFF7D8F996
:1052E00056E059E09808002000800C402E2E5C2EDD
:1052F0002E5C2E2E5C706C665C6472697665725CE6
:105300007265675C7265675F656D5F626C655F742F
:10531000785F646573632E6800000000286C6F631B
:10532000616C56616C2026207E282875696E743168
:10533000365F742930783030303046464646292969
:10534000203D3D20300000002E2E5C2E2E5C2E2EA7
:105350005C636F6D705C6D6F64756C65735C6462CB
:10536000675C7372635C6462675F7472632E630070
:1053700029462046FFF78CF90AE000BF4FF49062FF
:10538000AFF23C01AFF24400FAF73AFF00BF00BFB2
:1053900000BF00F0D0F900BFBDE8F0812DE9FC416D
:1053A00005460420019000BF9DF80400042806D0A3
:1053B00040F29142AFF2700137A0FAF721FF00BF2F
:1053C00038486A4601A903682F20984768B96C4697
:1053D000204600F01AF80646A01C00F016F8074612
:1053E00046EA07403049086002E000202E49086084
:1053F0001DB9FFF777F900F0A2F800F0A4F92B49E6
:10540000032000F06BFABDE8FC8101460A784B7876
:1054100042EA0320704770B505460C4616463246F0
:1054200023482118284641F031F870BD01465A2022
:1054300048431F4B1844B0F87421C2F34210704720
:10544000014601EB81001A4B03EB8000B0F8862681
:1054500002F00F007047014601EB8100144B03EB93
:105460008000B0F88826C2F3052070470146C1EBE2
:10547000C1000F4B03EB4000B0F8FC26100A704748
:105480000146C1EBC1000A4B03EB4000B0F8FC261B
:1054900002F00F00704700006C656E677468203D75
:1054A0003D203400A420002098080020014800007E
:1054B00000800C40024602F8011B0B0A1370704773
:1054C00010B502467C4BD3F8041200200B78552B04
:1054D0002FD1CB1C13445B1C784CA34209D3764BD1
:1054E000D3F800328B4203D1734B1C46C4F8003210
:1054F00071490B78552B1CD1CB1C13445B1C6F4C92
:10550000A34216D26C4BD3F800328B4201D101205A
:105510000FE0694BD3F800328B4209D9CB1C1344FE
:105520005B1C654CD4F80042A34202D2012000E08B
:105530000120012802D1604BC3F8041210BD10B540
:105540004FF403715C4840F0BAFF5B480146C1F874
:105550000402C1F800020020A1F8080255200870DA
:1055600010BD2DE9FF410646002472B63046FFF714
:10557000A7FF002844D05048D0F80442AA2004F8DD
:10558000010B31462046FFF795FFA41C641C012047
:1055900004F8010B301F81B22046FFF78BFFA41CDB
:1055A0004548B0F80802401C4349A1F808020846E3
:1055B000B0F808122046FFF77DFFA41C2746684676
:1055C00003F0A3FADDE900010546CDE90201384602
:1055D00000F8015B290A00F8011B290C00F8011BE7
:1055E000290E017000BF241D3348D0F80412F01CAE
:1055F00008443149C1F804025520D1F8041208705A
:1056000062B6204604B0BDE8F08110B5002472B641
:1056100000BF2948D0F800022749884205D3084630
:10562000D0F800122548814206D32349CE2324A274
:10563000D1F80002FAF7E6FD00BF1F48D0F80002DB
:105640000078AA2803D11C48D0F80002441C62B696
:10565000204610BD10B572B600241748D0F80002DD
:105660000078552806D100BFDF2215A11FA0FAF748
:10567000C7FD00BF55201049D1F8001208700E4830
:10568000D0F800420146D1F80012481C0278437855
:1056900042EA032100BFC91C0C442078552805D1DB
:1056A0000548D0F80402A04200D0034C0248C0F8DC
:1056B000004262B610BD00008C1500208C1700203F
:1056C0002E2E5C2E2E5C2E2E5C636F6D705C6D6FCB
:1056D00064756C65735C6462675C7372635C64625E
:1056E000675F7472635F6D656D2E6300300000004C
:1056F00070B500BF3A48407858B9394CA41C641CB6
:10570000601C00F067F8C01C85B20120E11E087023
:105710000EE0FFF77AFF044604B90AE0204600F0E5
:1057200059F80546681E85B2E41C00202C49087013
:1057300000BF00BF70BD10B529480078022801D114
:10574000FFF7D6FF10BD26480021016041600181AE
:105750000220234908700120487070472DE9F0416C
:105760001F4DAD1C284600F035F80746A81C00F078
:1057700031F8804647EA084006461A4840683040FB
:10578000184908602C46641C032004F8010B2046CD
:105790000421024602F8011B0B0A137000BFA41C6F
:1057A000224610480168104600F8011B0B0A00F859
:1057B000013B0B0C00F8013B0B0E037000BF0020F7
:1057C000A91E4870032000F0A1F8BDE8F08104484C
:1057D000801C704701460A784B7842EA03207047E4
:1057E000981700209808002010B538480021C163A0
:1057F000016441648164C164016500203349C86566
:10580000084600214165816500F062F800202F49BB
:10581000486100212D48816100202C4908604860C2
:10582000886200212948C16200F054FE01F03EF870
:1058300010BD10B509E0254800F041F8044604B950
:1058400004E0204600F096FC00BFF4E700BF0AE049
:105850001E48143000F033F8044604B904E0204632
:1058600000F088FC00BFF3E700BF0AE017482830CB
:1058700000F025F8044604B904E0204600F07EFA62
:1058800000BFF3E700BF10BD10B500F094F808B9F1
:10589000012010BD0020FCE710B504460B48007B3A
:1058A00020700A4890F820000870084890F83400EA
:1058B00010700648B0F85C001880002010BD10B5CC
:1058C00004462046FDF70BFE10BD0000A417002083
:1058D00010B51821554840F0F2FD10BD70B50446D2
:1058E0000D46032600BF052C00DA2DB9662350A211
:1058F00029462046FAF786FC00BF052C04DA4B48FF
:10590000001D40F824500026304670BD10B50446F6
:1059100000BF052C05DB762345A200212046FAF7BF
:1059200071FC00BF72B6052C0FDA40480068E040F9
:1059300000F0010010B948483EF00CFD3B480068FB
:105940000121A14008433949086062B6214605207B
:10595000FEF7D0FF10BD10B5044600BF052C05DBD7
:105960008C2333A200212046FAF74CFC00BF72B60C
:10597000052C06DA2D4800680121A14088432B49F7
:10598000086062B610BD70B50446002500BF052C46
:1059900005DB9D2326A200212046FAF733FC00BF39
:1059A00072B6052C04DA21480068E04000F00105D9
:1059B00062B6284670BD1D480068704700201B492C
:1059C0000860704770B54FF0FF3123483EF03DFC52
:1059D0001648056827E000BFB5FA85F0C0F11F0042
:1059E000C4B200BF052C05DBC72311A229462046FF
:1059F000FAF708FC00BF21460620FEF77BFF0B48A4
:105A0000001D50F8240028B10849091D51F8240050
:105A1000804706E000BFD32205A110A0FAF7F0FBF3
:105A200000BF02480568002DD5D170BD04180020C4
:105A30002E2E5C2E2E5C2E2E5C636F6D705C6D6F57
:105A400064756C65735C6B655C7372635C6B655FDE
:105A50006576656E742E6300700E002030000000C5
:105A600030B502460020FE4D55F82230103535F88D
:105A70001240994203D31D198D4200D3012030BD3D
:105A800010B5CB1C23F00304F54B43F8204072B64D
:105A90008B1823F00304F24B33F82030E31A9CB246
:105AA000EF4B53F820305C804AF25A54EC4B53F8D9
:105AB00020301C800024EA4B53F820305C60E84B17
:105AC00053F820309C60E64B103323F8102062B668
:105AD00010BD30B5014600200024E14D55F82140AD
